{
  "_format": "hh-sol-artifact-1",
  "contractName": "Vote",
  "sourceName": "contracts/Vote.sol",
  "abi": [
    {
      "inputs": [
        {
          "internalType": "uint256",
          "name": "_candidateFee",
          "type": "uint256"
        }
      ],
      "stateMutability": "nonpayable",
      "type": "constructor"
    },
    {
      "anonymous": false,
      "inputs": [
        {
          "indexed": false,
          "internalType": "uint256",
          "name": "candidateId",
          "type": "uint256"
        },
        {
          "indexed": false,
          "internalType": "address",
          "name": "candidateAddress",
          "type": "address"
        },
        {
          "indexed": false,
          "internalType": "string",
          "name": "name",
          "type": "string"
        }
      ],
      "name": "CandidateAdded",
      "type": "event"
    },
    {
      "anonymous": false,
      "inputs": [
        {
          "indexed": true,
          "internalType": "address",
          "name": "voter",
          "type": "address"
        },
        {
          "indexed": false,
          "internalType": "uint256",
          "name": "candidateId",
          "type": "uint256"
        }
      ],
      "name": "Voted",
      "type": "event"
    },
    {
      "inputs": [],
      "name": "candidateCount",
      "outputs": [
        {
          "internalType": "uint256",
          "name": "",
          "type": "uint256"
        }
      ],
      "stateMutability": "view",
      "type": "function"
    },
    {
      "inputs": [],
      "name": "candidateFee",
      "outputs": [
        {
          "internalType": "uint256",
          "name": "",
          "type": "uint256"
        }
      ],
      "stateMutability": "view",
      "type": "function"
    },
    {
      "inputs": [
        {
          "internalType": "uint256",
          "name": "",
          "type": "uint256"
        }
      ],
      "name": "candidates",
      "outputs": [
        {
          "internalType": "uint256",
          "name": "id",
          "type": "uint256"
        },
        {
          "internalType": "address",
          "name": "candidateAddress",
          "type": "address"
        },
        {
          "internalType": "string",
          "name": "name",
          "type": "string"
        },
        {
          "internalType": "uint256",
          "name": "voteCount",
          "type": "uint256"
        }
      ],
      "stateMutability": "view",
      "type": "function"
    },
    {
      "inputs": [
        {
          "internalType": "uint256",
          "name": "_candidateId",
          "type": "uint256"
        }
      ],
      "name": "getCandidateVoteCount",
      "outputs": [
        {
          "internalType": "uint256",
          "name": "",
          "type": "uint256"
        }
      ],
      "stateMutability": "view",
      "type": "function"
    },
    {
      "inputs": [
        {
          "internalType": "address",
          "name": "",
          "type": "address"
        }
      ],
      "name": "hasVoted",
      "outputs": [
        {
          "internalType": "bool",
          "name": "",
          "type": "bool"
        }
      ],
      "stateMutability": "view",
      "type": "function"
    },
    {
      "inputs": [],
      "name": "owner",
      "outputs": [
        {
          "internalType": "address",
          "name": "",
          "type": "address"
        }
      ],
      "stateMutability": "view",
      "type": "function"
    },
    {
      "inputs": [
        {
          "internalType": "string",
          "name": "_name",
          "type": "string"
        }
      ],
      "name": "registerAsCandidate",
      "outputs": [],
      "stateMutability": "payable",
      "type": "function"
    },
    {
      "inputs": [
        {
          "internalType": "uint256",
          "name": "_candidateId",
          "type": "uint256"
        }
      ],
      "name": "vote",
      "outputs": [],
      "stateMutability": "nonpayable",
      "type": "function"
    },
    {
      "inputs": [],
      "name": "voterCount",
      "outputs": [
        {
          "internalType": "uint256",
          "name": "",
          "type": "uint256"
        }
      ],
      "stateMutability": "view",
      "type": "function"
    },
    {
      "inputs": [],
      "name": "withdrawFees",
      "outputs": [],
      "stateMutability": "nonpayable",
      "type": "function"
    }
  ],
  "bytecode": "0x60806040523480156200001157600080fd5b50604051620012b2380380620012b28339818101604052810190620000379190620000c5565b336000806101000a81548173ffffffffffffffffffffffffffffffffffffffff021916908373ffffffffffffffffffffffffffffffffffffffff1602179055508060038190555050620000f7565b600080fd5b6000819050919050565b6200009f816200008a565b8114620000ab57600080fd5b50565b600081519050620000bf8162000094565b92915050565b600060208284031215620000de57620000dd62000085565b5b6000620000ee84828501620000ae565b91505092915050565b6111ab80620001076000396000f3fe6080604052600436106100915760003560e01c80636f25cd32116100595780636f25cd321461017e5780638da5cb5b146101a9578063a9a981a3146101d4578063b315c597146101ff578063b52087c11461023c57610091565b80630121b93f1461009657806309eef43e146100bf5780633477ee2e146100fc57806342169e481461013c578063476343ee14610167575b600080fd5b3480156100a257600080fd5b506100bd60048036038101906100b8919061084a565b610258565b005b3480156100cb57600080fd5b506100e660048036038101906100e191906108d5565b61040b565b6040516100f3919061091d565b60405180910390f35b34801561010857600080fd5b50610123600480360381019061011e919061084a565b61042b565b60405161013394939291906109e6565b60405180910390f35b34801561014857600080fd5b50610151610503565b60405161015e9190610a32565b60405180910390f35b34801561017357600080fd5b5061017c610509565b005b34801561018a57600080fd5b50610193610600565b6040516101a09190610a32565b60405180910390f35b3480156101b557600080fd5b506101be610606565b6040516101cb9190610a4d565b60405180910390f35b3480156101e057600080fd5b506101e961062a565b6040516101f69190610a32565b60405180910390f35b34801561020b57600080fd5b506102266004803603810190610221919061084a565b610630565b6040516102339190610a32565b60405180910390f35b61025660048036038101906102519190610b9d565b6106a0565b005b600560003373ffffffffffffffffffffffffffffffffffffffff1673ffffffffffffffffffffffffffffffffffffffff16815260200190815260200160002060009054906101000a900460ff16156102e5576040517f08c379a00000000000000000000000000000000000000000000000000000000081526004016102dc90610c32565b60405180910390fd5b6000811180156102f757506001548111155b610336576040517f08c379a000000000000000000000000000000000000000000000000000000000815260040161032d90610c9e565b60405180910390fd5b6001600560003373ffffffffffffffffffffffffffffffffffffffff1673ffffffffffffffffffffffffffffffffffffffff16815260200190815260200160002060006101000a81548160ff0219169083151502179055506004600082815260200190815260200160002060030160008154809291906103b590610ced565b91905055503373ffffffffffffffffffffffffffffffffffffffff167f4d99b957a2bc29a30ebd96a7be8e68fe50a3c701db28a91436490b7d53870ca4826040516104009190610a32565b60405180910390a250565b60056020528060005260406000206000915054906101000a900460ff1681565b60046020528060005260406000206000915090508060000154908060010160009054906101000a900473ffffffffffffffffffffffffffffffffffffffff169080600201805461047a90610d64565b80601f01602080910402602001604051908101604052809291908181526020018280546104a690610d64565b80156104f35780601f106104c8576101008083540402835291602001916104f3565b820191906000526020600020905b8154815290600101906020018083116104d657829003601f168201915b5050505050908060030154905084565b60025481565b60008054906101000a900473ffffffffffffffffffffffffffffffffffffffff1673ffffffffffffffffffffffffffffffffffffffff163373ffffffffffffffffffffffffffffffffffffffff1614610597576040517f08c379a000000000000000000000000000000000000000000000000000000000815260040161058e90610e07565b60405180910390fd5b60008054906101000a900473ffffffffffffffffffffffffffffffffffffffff1673ffffffffffffffffffffffffffffffffffffffff166108fc479081150290604051600060405180830381858888f193505050501580156105fd573d6000803e3d6000fd5b50565b60035481565b60008054906101000a900473ffffffffffffffffffffffffffffffffffffffff1681565b60015481565b6000808211801561064357506001548211155b610682576040517f08c379a000000000000000000000000000000000000000000000000000000000815260040161067990610c9e565b60405180910390fd5b60046000838152602001908152602001600020600301549050919050565b6003543410156106e5576040517f08c379a00000000000000000000000000000000000000000000000000000000081526004016106dc90610e99565b60405180910390fd5b600160008154809291906106f890610ced565b9190505550604051806080016040528060015481526020013373ffffffffffffffffffffffffffffffffffffffff16815260200182815260200160008152506004600060015481526020019081526020016000206000820151816000015560208201518160010160006101000a81548173ffffffffffffffffffffffffffffffffffffffff021916908373ffffffffffffffffffffffffffffffffffffffff16021790555060408201518160020190816107b29190611065565b50606082015181600301559050507f0d9f44e6b2dcff6314b1f41063dfe46001b4c579bbb60a02ef69a076c5faaf8c60015433836040516107f593929190611137565b60405180910390a150565b6000604051905090565b600080fd5b600080fd5b6000819050919050565b61082781610814565b811461083257600080fd5b50565b6000813590506108448161081e565b92915050565b6000602082840312156108605761085f61080a565b5b600061086e84828501610835565b91505092915050565b600073ffffffffffffffffffffffffffffffffffffffff82169050919050565b60006108a282610877565b9050919050565b6108b281610897565b81146108bd57600080fd5b50565b6000813590506108cf816108a9565b92915050565b6000602082840312156108eb576108ea61080a565b5b60006108f9848285016108c0565b91505092915050565b60008115159050919050565b61091781610902565b82525050565b6000602082019050610932600083018461090e565b92915050565b61094181610814565b82525050565b61095081610897565b82525050565b600081519050919050565b600082825260208201905092915050565b60005b83811015610990578082015181840152602081019050610975565b60008484015250505050565b6000601f19601f8301169050919050565b60006109b882610956565b6109c28185610961565b93506109d2818560208601610972565b6109db8161099c565b840191505092915050565b60006080820190506109fb6000830187610938565b610a086020830186610947565b8181036040830152610a1a81856109ad565b9050610a296060830184610938565b95945050505050565b6000602082019050610a476000830184610938565b92915050565b6000602082019050610a626000830184610947565b92915050565b600080fd5b600080fd5b7f4e487b7100000000000000000000000000000000000000000000000000000000600052604160045260246000fd5b610aaa8261099c565b810181811067ffffffffffffffff82111715610ac957610ac8610a72565b5b80604052505050565b6000610adc610800565b9050610ae88282610aa1565b919050565b600067ffffffffffffffff821115610b0857610b07610a72565b5b610b118261099c565b9050602081019050919050565b82818337600083830152505050565b6000610b40610b3b84610aed565b610ad2565b905082815260208101848484011115610b5c57610b5b610a6d565b5b610b67848285610b1e565b509392505050565b600082601f830112610b8457610b83610a68565b5b8135610b94848260208601610b2d565b91505092915050565b600060208284031215610bb357610bb261080a565b5b600082013567ffffffffffffffff811115610bd157610bd061080f565b5b610bdd84828501610b6f565b91505092915050565b7f557365722068617320616c726561647920766f74656400000000000000000000600082015250565b6000610c1c601683610961565b9150610c2782610be6565b602082019050919050565b60006020820190508181036000830152610c4b81610c0f565b9050919050565b7f496e76616c69642063616e646964617465204944000000000000000000000000600082015250565b6000610c88601483610961565b9150610c9382610c52565b602082019050919050565b60006020820190508181036000830152610cb781610c7b565b9050919050565b7f4e487b7100000000000000000000000000000000000000000000000000000000600052601160045260246000fd5b6000610cf882610814565b91507fffffffffffffffffffffffffffffffffffffffffffffffffffffffffffffffff8203610d2a57610d29610cbe565b5b600182019050919050565b7f4e487b7100000000000000000000000000000000000000000000000000000000600052602260045260246000fd5b60006002820490506001821680610d7c57607f821691505b602082108103610d8f57610d8e610d35565b5b50919050565b7f4f6e6c79206f776e65722063616e2063616c6c20746869732066756e6374696f60008201527f6e00000000000000000000000000000000000000000000000000000000000000602082015250565b6000610df1602183610961565b9150610dfc82610d95565b604082019050919050565b60006020820190508181036000830152610e2081610de4565b9050919050565b7f496e73756666696369656e742066756e647320746f207265676973746572206160008201527f7320612063616e64696461746500000000000000000000000000000000000000602082015250565b6000610e83602d83610961565b9150610e8e82610e27565b604082019050919050565b60006020820190508181036000830152610eb281610e76565b9050919050565b60008190508160005260206000209050919050565b60006020601f8301049050919050565b600082821b905092915050565b600060088302610f1b7fffffffffffffffffffffffffffffffffffffffffffffffffffffffffffffffff82610ede565b610f258683610ede565b95508019841693508086168417925050509392505050565b6000819050919050565b6000610f62610f5d610f5884610814565b610f3d565b610814565b9050919050565b6000819050919050565b610f7c83610f47565b610f90610f8882610f69565b848454610eeb565b825550505050565b600090565b610fa5610f98565b610fb0818484610f73565b505050565b5b81811015610fd457610fc9600082610f9d565b600181019050610fb6565b5050565b601f82111561101957610fea81610eb9565b610ff384610ece565b81016020851015611002578190505b61101661100e85610ece565b830182610fb5565b50505b505050565b600082821c905092915050565b600061103c6000198460080261101e565b1980831691505092915050565b6000611055838361102b565b9150826002028217905092915050565b61106e82610956565b67ffffffffffffffff81111561108757611086610a72565b5b6110918254610d64565b61109c828285610fd8565b600060209050601f8311600181146110cf57600084156110bd578287015190505b6110c78582611049565b86555061112f565b601f1984166110dd86610eb9565b60005b82811015611105578489015182556001820191506020850194506020810190506110e0565b86831015611122578489015161111e601f89168261102b565b8355505b6001600288020188555050505b505050505050565b600060608201905061114c6000830186610938565b6111596020830185610947565b818103604083015261116b81846109ad565b905094935050505056fea26469706673582212200b7c1ec5eae8e5d87e2d9a90c1e3813cb2c864e5b95de872d6d25cd48c88957364736f6c63430008140033",
  "linkReferences": {},
  "deployedLinkReferences": {}
}